:020000020000FC
:1000000008E00EBF0FE50DBF0FEF04BB01BB0BBB3C
:1000100000E00ABB21E030E040E0022F10E0422F78
:10002000230F342F0A300CF407C05AE0051B139538
:10003000F9CF093009F0F1CF602F0E94320065BB83
:10004000612F0E94320062BB0E942700F2CFB8E00D
:10005000CDE7DAEFDA950000E9F7CA95D1F7BA955E
:10006000B9F70895603011F46FE30895613011F429
:1000700066E00895623011F46BE50895633011F481
:100080006FE40895643011F466E60895653011F464
:100090006DE60895663011F46DE70895673011F448
:1000A00067E00895683011F46FE70895693009F446
:0400B0006FE608955A
:00000001FF
