:060000000C9440000C947A
:1000060000000C9400000C9400000C9400000C946A
:1000160000000C9400000C9400000C9400000C945A
:1000260000000C9400000C9400000C9400000C944A
:1000360000000C9400000C9400000C9400000C943A
:1000460000000C9400000C9400000C9400000000CA
:1000560048756D61646974793A200025000080C096
:100066000100050054000B006002560002006B02FE
:10007600610002006D0264000000F894EE27ECBBFC
:10008600F1E0FBBFEBBFE5BF8DE0A2E0BB27ED9340
:100096008A95E9F780E098E0A0E6ED930197E9F705
:1000A600E6E6F0E085919591009761F0A591B5910E
:1000B60005901590BF01F00105900D920197E1F7AB
:1000C600FB01F0CFEFE5EDBFE8E0EEBFC0E6D2E022
:1000D6000C94B300BA93AA93E881E05DA4C0BA93E6
:1000E600AA930E94C10100E010E0AE81BF81EAE060
:1000F600F0E00E94A001DF01EDDF3E2FAE81BF815F
:10010600EAE0F0E00E94A501DF01E4DF2E2FEC819A
:10011600EA93A02F7DD0A32F92D0EC81EF5FEA93D4
:10012600A02F76D0A22F8BD00E94C60128960895C4
:100136001A9310E0183088F4C99BFECF80E58A95A3
:10014600F1F7C99B05C0E52DEE0FE1605E2E01C0FB
:10015600550CC999FECF1F5FEDCFE52D1991089576
:10016600EFEFE7BBA0E191D0E0E0EA93A0E050D04A
:10017600A0E6B2E079D0D19AD998A4E1B0E00E9485
:100186007F01D99AD198C999FECFC99BFECFC9994B
:10019600FECFCEDF4E2EF0E0FA93EA93AAE0B0E06F
:1001A6009EDFECE0EA93A0E033D0ABE6B2E05CD0B1
:1001B600E8E24E1618F0ECE3E41510F4E1E001C0B5
:1001C600E0E0E8BBA4E6B0E00E947F01D4CFFFCF19
:1001D600AA93E5B3EF70AE2FE881E07FEA2BE5BB8B
:1001E6008DE08A95F1F7AA9A8DE08A95F1F7AA989B
:1001F6008DE08A95F1F772C0AA93A881E9DFE881BC
:10020600E295E883A881E4DF85E88A95F1F766C080
:10021600AA93E881F0E0E359FD4FE081A981AE0F92
:10022600EBDF7980688022960895A2E059D0ACE091
:10023600E3DFA1E055D0E0E06E2E7E2E0895AA936E
:10024600A881AA3011F0791448F0E0E0EA936394AB
:10025600A62DDEDFA881AA3009F440C07394A89ABF
:10026600A881CADFA8983AC0BA93AA931A93A9811B
:10027600BA81ED91A983BA831E2FE03019F0A12F20
:10028600DEDFF5CF188123960895AA93E4B3E06FD5
:10029600E4BBA29AA09AA19AAA98A898A99898802D
:1002A600E881E058E0936F02E881E054E093700241
:1002B600A4E1B0E00E947F0118D017D016D0A0E2CA
:1002C60087DF88EC90E00197F1F7A8E295DFA4E0DC
:1002D60093DFA5E891DFA6E08FDFA7DF21960895DB
:1002E6008BDFA3E0B0E00C947F01A0E371DF88EC24
:1002F60090E00197F1F70895109639F080ED97E0B8
:100306000197F1F7A8951197C9F70895F195E19529
:10031600F04008950024112490E1AA0FBB1F001C91
:10032600111C0E1A1F0A18F40E0E1F1E01C0A16022
:100336009A9599F7FD01D001089512D0EBDF0EF4DE
:10034600E5DF0895E894B7FF04C0A095B09511962F
:100356006894F7FDDBDFDEDFFD010EF4D7DF0895DD
:10036600E894F7FF02C0D2DF6894B7FF06C0A095F5
:10037600B095119600F8039400FA08953A932A93DB
:100386001A930A9308953B812A8119810881089559
:00000001FF
