:020000000C945E
:1000020038000C9468000C9400000C9400000C94CE
:1000120000000C9400000C9400000C9478000C94E6
:1000220000000C9400000C9400000C9400000C944E
:1000320000000C9400000C9400000C9400000C943E
:1000420000000C9400000C9400000C9400000C942E
:1000520000000000000040792430191202780010DC
:100062000400040054000A00600258000000F894E2
:10007200EE27ECBBF1E0FBBFEBBFE5BFF8E1F1BD62
:10008200E1BD8DE0A2E0BB27ED938A95E9F780E020
:1000920098E0A0E6ED930197E9F7E2E6F0E08591BA
:1000A2009591009761F0A591B59105901590BF01CA
:1000B200F00105900D920197E1F7FB01F0CFEFE51A
:1000C200EDBFE8E0EEBFC0E6D2E00C949500EA9303
:1000D200FA93EFB7EA93AB9905C0E1E0F0E0E619D5
:1000E200F7093F01E991EFBFF991E99118950A9259
:1000F2001A929A93AA93BA93EA93FA93EFB7EA936E
:10010200062C072839F4D2011196EAE0F0E00E94A9
:10011200CE002F01E991EFBFF991E991B991A9912F
:100122009991199009901895EFEFEABBEBB7E06E41
:10013200EBBFEAE0E5BFE0E0E4BFE0EEEABFE0E00B
:10014200EFBDECE0EEBDE0E0EDBDECBDE7BDE6BD30
:10015200EAE7EBBDE2E1EABDE0E0E9BDE8BDE2E1EC
:10016200E9BF7894A0E6B2E0A40DB51DEC91EBBB1B
:10017200F9CFFFCF0024112490E1AA0FBB1F001C6E
:10018200111C0E1A1F0A18F40E0E1F1E01C0A160C8
:100192009A9599F7FD01D0010895ECDFFD010895CC
:00000001FF
