:100000000C9460000C9400000C9400000C94000010
:100010000C9400000C9400000C9400000C94000060
:100020000C9400000C9400000C9400000C94000050
:100030000C9400000C9400000C9400000C94000040
:100040000C9400000C9400000C9400000C94000030
:100050000C940000000000000000B441436F6F6C7E
:1000600065722D2D3E204F464600436F6F6C6572C2
:100070002D2D3E204F4E20004865617465722D2D58
:100080003E204F4646004865617465722D2D3E2026
:100090004F4E200054656D70203A0043000080C030
:1000A00004000400540004006902580007006002C4
:1000B0009400020067029B0002006D029E00000097
:1000C000F894EE27ECBBF1E0FBBFEBBFE5BFF8E136
:1000D000F1BDE1BD8DE0A2E0BB27ED938A95E9F784
:1000E00080E098E0A0E6ED930197E9F7E0EAF0E020
:1000F00085919591009761F0A591B5910590159026
:10010000BF01F00105900D920197E1F7FB01F0CFDF
:10011000EFE5EDBFE8E0EEBFC0E6D2E00C941001E1
:10012000BA93AA93E881E05D0C944502BA93AA932E
:100130000E94A60400E010E0AE81BF81EAE0F0E09A
:100140000E946404DF01ECDF3E2FAE81BF81EAE054
:10015000F0E00E946904DF01E3DF2E2FEC81EA93D7
:10016000A02F88D1A32F9DD1EC81EF5FEA93A02F20
:1001700081D1A22F96D10E94AB0428960895BA93FC
:10018000AA93E2E0EA93A1E075D1EA81FB8130977E
:1001900019F4ACE5B0E002C0AAE6B0E0A6D1E2E016
:1001A000EA93A2E067D1E881F981309719F4A8E7D2
:1001B000B0E002C0A6E8B0E098D130C0AA93E881D0
:1001C000E064E7B98BE18A95F1F7369A349BFECF6C
:1001D000349AE4B1F5B10C94B1020E948F040E94EC
:1001E0008504A0E0B0E080E89FE30E94D6037F93FF
:1001F0006F93FF93EF93B7D1A0E0B0E080E890E475
:100200000E948803AF91BF918F919F910E94D60366
:10021000A0E0B0E08AE794E40E9488032496089561
:10022000249724E030E0AED1D8DF0E948A0440E079
:1002300050E0389AE5E8E6B9E0E0E0BFEFEFE1BB77
:10024000E0E0E2BBA0E164D1E2E0A4D1A0E6B2E04C
:100250003DD1ECE09FD1AFED24D1EDE09BD1A7E6FD
:10026000B2E034D1A4E6B0E00E94EA022297E3E2D1
:10027000E883E0E0E983A0E0A1DF8F010E9447046A
:100280000E945A03A6E9BBE58AEF9EE30E94880319
:100290000E9423038F011A930A93A9E0B0E046DF7E
:1002A000042C052839F4062C072821F40F30E0E04F
:1002B0001E070CF004C0E1E0F0E03F012CC0042C6C
:1002C000052839F4062C072821F40432E0E01E0743
:1002D0000CF406C0E1E0F0E02F0124E030E01BC0A8
:1002E000042C052839F0062C072821F40931E0E018
:1002F0001E070CF003C0442455240DC0042C05280F
:1003000039F4062C072821F00F31E0E01E070CF429
:1003100002C0662477245A924A92D30130DFE4E087
:10032000F0E0E217F30721F40932E0E01E070CF4D5
:1003300001C024C0E6E0F0E0E217F30721F4033245
:10034000E0E01E070CF003C024E030E019C0E6E056
:10035000F0E0E217F30721F40E32E0E01E070CF4A0
:1003600003C028E030E00CC0E8E0F0E0E217F3075B
:1003700021F40832E0E01E070CF002C026E030E075
:1003800001D1E0E0F0E060EA70E40E94D603DF0112
:10039000CB0123DFEA83FB836C837D83042C052858
:1003A00029F0DE010E942103ED93FC9340E050E030
:1003B000DAD0DA010E944C040E9496040E941B04C9
:1003C000B0F5E0E0E2BB042C052819F0E2B3E960E7
:1003D000E2BB062C072819F0E2B3E069E2BBDDD0EE
:1003E00019F0E2D0EC60E2BB062C072819F0E1D04E
:1003F000E06CE2BBD2D019F0D7D0E660E2BB062CAD
:10040000072819F0D6D0E066E2BBC7D019F0CCD0EF
:10041000E360E2BB062C072819F0CBD0E063E2BB17
:10042000A881B9810E94EA024F5F5F4FC1CF229637
:100430001DCFFFCFAA93E5B3EF70AE2FE881E07F29
:10044000EA2BE5BB8DE08A95F1F7AA9A8DE08A95B3
:10045000F1F7AA988DE08A95F1F783C0AA93A88155
:10046000E9DFE881E295E883A881E4DF85E88A9501
:10047000F1F777C0AA93E881F0E0E359FD4FE081FE
:10048000A981AE0FEBDF9980888022960895A2E0C3
:1004900095D0ACE0E3DFA1E091D0E0E08E2E9E2E7F
:1004A0000895AA93A881AA3011F09B1448F0E0E0C7
:1004B000EA938394A82DDEDFA881AA3009F451C005
:1004C0009394A89AA881CADFA8984BC0BA93AA931C
:1004D0001A93A981BA81ED91A983BA831E2FE030C6
:1004E00019F0A12FDEDFF5CF10C0BA93AA931A93AB
:1004F000E981FA813196E983FA833197E4911E2FDD
:10050000E03019F0A12FCDDFF3CF188123960895A5
:10051000AA93E4B3E06FE4BBA29AA09AA19AAA9826
:10052000A898A998B880E881E058E0936F02E88124
:10053000E054E0937002A4E1B0E00E94EA0243D0EC
:1005400042D041D0A0E276DF88EC90E00197F1F74D
:10055000A8E284DFA4E082DFA5E880DFA6E07EDFFA
:1005600096DF21960895E0916902F0916A02609108
:100570006B0270916C02A0E0B0E084EB92E40E9408
:10058000D6030895F901662777270E945A03DF01F1
:10059000CB010895EA93A0E06DCFA881B9810E94B4
:1005A000EA02042C05280895E2B3E07FE2BBE2B33F
:1005B0000895E2B3EF70E2BBE2B308954FDFA3E02A
:1005C000B0E00C94EA02A0E335DF88EC90E00197FC
:1005D000F1F70895109639F080ED97E00197F1F763
:1005E000A8951197C9F70895552342F4503811F48E
:1005F000E0FF04C03196691F791F6BF050E8572760
:1006000011F45F9373C05F3F31F0660F000C579594
:100610006795752F08955F9300200AF073C06CC032
:1006200050E8192E1522880F991F9527550F879589
:1006300050E8072E0522660F771F7527550F67951F
:100640000895689401C0E8945F93F2DF703818F061
:100650007F3F08F44BC056E1571BAAF45195583020
:100660000EF4593030F0EFEFFFEF6FEF7FE777F9DF
:100670001AC077275523B9F0EE0FFF1F661F771FAB
:100680005A95D1F710C07727583028F0EF2FF62F62
:10069000672F5850F9CF552331F076956795F79528
:1006A000E7955A95D1F700200AF4E9D05F910895B3
:1006B000689401C0E894309760407040B1F0002425
:1006C00026F0772312F40094DAD0172E7EE1112061
:1006D00032F07A95EE0FFF1F661F111CF9CFEF2F36
:1006E000F62F612D5F938ADF5F910895EE27FF2734
:1006F000662777275F910895EFEFFFEF6FE77FEFB2
:100700005F910895EFEFFFEF6FE77FE75F91089547
:100710005F9386DF703851F3903841F301240894D9
:10072000791F23F41CF300203AF3ECCF0F921F93B0
:100730002F933F934F93112722279927689FA0015A
:100740008F9F302D410D591F6B9F300D411D591F3B
:100750008E9F27D0BF9F25D06A9F23D0BE9F1DD0DC
:10076000AF9F1BD0AE9F110D291F391F491F591F65
:10077000E32FF42F652F522F4F913F912F911F910F
:100780000F9066232AF0550FEE1FFF1F661F02C051
:1007900073954BF229DF5F910895100D211D391FCC
:1007A00002C0200D311D491F591F08955F9338DF86
:1007B000703821F411200AF49FCFA4CF903809F4A7
:1007C00095CF01240894970B1BF4D4F30020F3CFAA
:1007D000792F1F932F933F934F9311241127222793
:1007E00033274427552790E2AE17BF0786074107F6
:1007F00030F0AE1BBF0B860B410B089401C08894F0
:10080000551F221F331F111CAA1FBB1F881F441F07
:100810009A9551F7F901612D4F913F912F911F91B9
:10082000662332F0550FEE1FFF1F661F7A9543F2C5
:10083000DBDE5F91089599239AF0772342F09717B2
:1008400048F029F4AE17BF07860720F031F09894DE
:100850008894089598940894089518948894089515
:100860007723C2F7971798F3A9F7EA17FB076807EA
:1008700088F399F3ECCFF195E195F0400895F09568
:1008800060957095E195FF4F6F4F7F4F08956F2FE3
:10089000660F660B762F08958B2F880F880B982F85
:1008A00008950024112490E1AA0FBB1F001C111C05
:1008B0000E1A1F0A18F40E0E1F1E01C0A1609A9591
:1008C00099F7FD01D001089512D0EBDF0EF4D3DFCC
:1008D0000895E894B7FF04C0A095B0951196689468
:1008E000F7FDC9DFDEDFFD010EF4C5DF0895E894F2
:1008F000F7FF02C0C0DF6894B7FF06C0A095B095AF
:10090000119600F8039400FA0895E881F9816A814C
:100910007B810895E883F9836A837B8308959A93A2
:100920008A93BA93AA930895689401C0E89401D079
:10093000C2DE182E862F612D192E972F712D1B2E9A
:10094000BF2FF12D1A2EAE2FE12D08953A932A9341
:100950001A930A9308953B812A8119810881089589
:00000001FF
