:0C0000000C9448000C9400000C940000CC
:10000C000C9400000C9400000C9400000C94000064
:10001C000C9400000C9400000C9400000C94000054
:10002C000C9400000C9400000C9400000C94000044
:10003C000C9400000C9400000C9400000C94000034
:10004C000C9400000C9400001027E80364000A00D4
:10005C0001000010000110000100000000012564E7
:10006C00000080C001002D4E414E00494E4600005C
:10007C00040004006600020078026E0001007C029D
:10008C0070000000F894EE27ECBBF1E0FBBFEBBF77
:10009C00E5BFF8E1F1BDE1BD8DE0A2E0BB27ED933A
:1000AC008A95E9F780E098E0A0E6ED930197E9F7EF
:1000BC00ECE7F0E085919591009761F0A591B591F1
:1000CC0005901590BF01F00105900D920197E1F795
:1000DC00FB01F0CFEFE5EDBFE8E0EEBFC0E6D2E00C
:1000EC000C94B1016497EFE2E88BEAE2E98BEDE264
:1000FC00EA8BEBE2EB8B0E94B00630E0343008F078
:10010C00B2C010E0F201A12FB0E0AE17BF070CF0A7
:10011C00A8C0E12FF0E0EC58FD4F0080E32FF0E099
:10012C00DE015696AE0FBF1FEC91E01509F097C09B
:10013C003030C9F40E947404EA0FFB1FFF93EF9355
:10014C000E9474040E947B047F936F93FF93EF9340
:10015C000E948004AF91BF918F919F910E942706BE
:10016C00AF91BF9152C03130C9F40E947404EA0FB0
:10017C00FB1FFF93EF930E9474040E947B047F93F8
:10018C006F93FF93EF930E948004AF91BF918F9177
:10019C009F910E94D905AF91BF9137C03230D9F4ED
:1001AC000E947404EA0FFB1FFF93EF930E947404E8
:1001BC000E947B047F936F93FF93EF930E948004C4
:1001CC00AF91BF918F919F910E94A3060E948205CF
:1001DC00AF91BF911AC03330D1F40E947404EA0F6E
:1001EC00FB1FFF93EF930E9474040E947B047F9388
:1001FC006F93FF93EF930E948004AF91BF918F9107
:10020C009F910E948905AF91BF910E949506012F85
:10021C00F2013197A02FB0E0AE17BF07ECF4E02F3E
:10022C00F0E031960E9489040F01A02FBB270E9499
:10023C008106A859BD4F0E948F06D0010E949506D9
:10024C00A02FB0E0AC58BD4FE02FF0E0EB58FD4FC5
:10025C00E081EC930F5FDCCFF20131972F011F5F30
:10026C0051CF3F5F4BCFE0916002F0916102609102
:10027C006202709163020E941805AF01FE0136966E
:10028C00FA93EA93EAE6F0E0FA93EA93FA010E9411
:10029C0086060E949E0684E00E9427042896DE01B2
:1002AC0016961CD10E94B7066A9608951A931FEFF2
:1002BC00909A91980E949004849B02C017E00AC007
:1002CC00859B02C018E006C0869B02C019E002C0E4
:1002DC0087991FE29098919A0E949004849B02C087
:1002EC0014E00AC0859B02C015E006C0869B02C0C4
:1002FC0016E002C087991AE290989198929A939876
:10030C00A5E0B0E00E94DF04849B02C011E00AC0AB
:10031C00859B02C012E006C0869B02C013E002C09F
:10032C0087991DE2909891989298939AA5E0B0E0E5
:10033C000E94DF04859B02C010E00AC0849B02C0AF
:10034C0013E606C0869B02C01DE302C087991BE220
:10035C00E12F19910895EFEFE4BBEFE0E1BBE0E092
:10036C00E5BBA0E1CCD099D0A1DF1E2F1F3F09F433
:10037C0065C09CDFEF3FE9F7A4E1B0E00E94DF0429
:10038C00103010F01A3008F02DC0A12FA05D91D0C4
:10039C00F2010E948904FF93EF93DF010E948F0604
:1003AC00A0E0B0E080E291E40E94D905AF91BF914A
:1003BC000E949506F2010E948904FF93EF93DF01DE
:1003CC000E948F06DF01CB01E12FF0E00E94860630
:1003DC000E944F050E948905AF91BF910E9495061E
:1003EC0077242CC0133669F458D000E0053020F483
:1003FC000E9496040F5FFACF44245524E1E07E2E30
:10040C001DC01D3371F449D06DDE00E0053020F4C1
:10041C000E9496040F5FFACF44245524E1E07E2E0F
:10042C000DC0772059F4E1E07E2EF201EC58FD4F1F
:10043C001083A12F3ED0F20131962F0195CFFFCF23
:10044C00AA93E5B3EF70AE2FE881E07FEA2BE5BB12
:10045C008DE08A95F1F7AA9A8DE08A95F1F7AA9822
:10046C008DE08A95F1F777C0AA93A881E9DFE8813E
:10047C00E295E883A881E4DF85E88A95F1F76BC003
:10048C00AA93E881F0E0E858FD4FE081A981AE0F16
:10049C00EBDF6980988022960895A2E00E94A50463
:1004AC00ACE0E2DFA1E00E94A504E0E09E2E6E2EFF
:1004BC000895AA93A881AA3011F0681448F0E0E0DE
:1004CC00EA939394A92DDCDFA881AA3009F443C0E8
:1004DC006394A89AA881C8DFA8983DC0BA93AA9340
:1004EC001A93A981BA81ED91A983BA831E2FE030AA
:1004FC0019F0A12FDEDFF5CF188123960895AA936A
:10050C00E4B3E06FE4BBA29AA09AA19AAA98A89827
:10051C00A9988880E881E058E0937A02E881E05459
:10052C00E0937B02A4E1B0E00E94DF040E94AB04E4
:10053C000E94AB040E94AB04A0E282DF88EC90E046
:10054C000197F1F7A8E290DFA4E08EDFA5E88CDF3D
:10055C00A6E08ADFA2DF21960895BA93AA931A9394
:10056C000A93AA81BB8112960E948B06309759F18F
:10057C00AA81BB8114960E948B068F01309761F083
:10058C000230E0E01E0798F0F80131978F01AA8144
:10059C00BB811496ED93FC93AA81BB811296ED91CD
:1005AC00FD913196FE93EE933197AC81A083AA8195
:1005BC00BB810E948B06FF232AF0ED91FD913196B1
:1005CC00FE93EE9306C0AA81BB81EFEFFFEFED9394
:1005DC00FC931981088125960895BA93AA932697BE
:1005EC000E94B00610E0AC85BD85E0E0F0E0ED9334
:1005FC00FC93EA89FB893196EA8BFB8B3197E4916A
:10060C002E2FE03009F415C1E12FE03039F42532FA
:10061C0011F411E002C00E94B3040AC1E130A9F444
:10062C00253219F40E94B30402C112E040E000E04C
:10063C002D3211F401E0FCC02B3211F44BE2F8C066
:10064C00203211F440E2F4C002C0E23039F450E040
:10065C0013E0203311F40068EBC003C0E33009F061
:10066C00E7C0203310F02A3308F007C0AAE05A9FE5
:10067C00502DE22FE0535E0FDBC0E22FE33649F43E
:10068C000E94BA04E889F989A481AA930E94C00443
:10069C00CEC0E33741F40E94BA040E94C6040E9403
:1006AC005B041E2F0AC0E03761F40E94BA040E945A
:1006BC00C6040E9467041E2F086002600F7730E0AA
:1006CC0034C0E43611F0E93611F4046002C0E537A9
:1006DC0031F4E4E5F0E0EE83FF8315E00CC0E8357F
:1006EC0011F4086003C0E83709F0A1C0EEE5F0E0B2
:1006FC00EE83FF8314E002FF14C00E94BA040E9430
:10070C00D004AB85AA233AF4EA85FB850E947006D7
:10071C00EA87FB874DE2403011F01F5F01C00B7F71
:10072C0004C00E94BA040E94D00400FD11C0151729
:10073C0078F407FF08C002FF04C00B7F242F115070
:10074C0001C020E301C020E20E94B3045150EFCF5E
:10075C00312F01FF17C03030A1F003FF06C0EE812E
:10076C00FF812591EE83FF8305C0AE81BF812D9162
:10077C00AE83BF830E94B304503009F05150315006
:10078C00EACF4BC020E3EE81FF810E949A06E887F6
:10079C00F987EE81FF813296EE83FF83E885F98538
:1007AC00AA85BB85AE17BF0750F02F5FA885B9850A
:1007BC00EA85FB85EA1BFB0BEA87FB87EFCF2A3325
:1007CC0028F003FF02C0295F01C0295D04FD1AC097
:1007DC00213320F4A885B985119709F409C0531762
:1007EC0010F000FF01C013C020E207FF0BC020E394
:1007FC00006102FF07C00B7F4A930E94C004503077
:10080C0009F051500E94B304503009F0515031504E
:10081C00A885B985129708F0B5CF00FF08C05030F5
:10082C0031F05150E0E2EA930E94C004F8CF10E09E
:10083C00E0CEAC85BD850E948B060E94B7066496FF
:10084C000895FF92F82E26970E94B2060E94D804B3
:10085C00309719F4EFEFFFEF23C0DE0116960E94DC
:10086C006C068D010E94D804EE83FF83E0E0E887DC
:10087C00E987DE011A960E946C060E948B06FA9399
:10088C00EA931A930A93E3EBF2E0FA93EA93DE010C
:10089C001A96A3DE9F01AE81BF81E0E0EC93F901D3
:1008AC000E94B9062A96FF900895BA93AA93A9912B
:1008BC00B991EE27FF276D91662311F03196FBCF8E
:1008CC000895BA93AA93AA27BB27E991F9910590A9
:1008DC00002011F01196FBCFFD010895E12FA0E649
:1008EC00B2E0F0E00E947C060895AE0FBF1F0E949C
:1008FC008F060895A12FBB270E948106AC59BD4FCE
:10090C000E948F060895A0E6B2E00E947C06EA0FD2
:10091C00FB1F089592989398A5E0B0E00C94DF0427
:10092C00E02FA0E6B2E0F0E00E947C06AE0FBF1F05
:10093C00E0E0F0E060E070E00E94950608950E940F
:10094C003A02A3E0B0E00C94DF04A0E30E9426027C
:10095C0088EC90E00197F1F708952A93AD85BE8558
:10096C00EF85F88909950895E889F9893497E88B1A
:10097C00F98B0895AD85BE85EF85F88909950895A5
:10098C00A889B98914960E948B06EE83FF83AE81E9
:10099C00BF810895A889B98914960E948B06EA87AD
:1009AC00FB870895DE011C960E946C060E948B0644
:1009BC000895109639F080ED97E00197F1F7A8951E
:1009CC001197C9F70895552342F4503811F4E0FFFC
:1009DC0004C03196691F791F6BF050E8572711F44A
:1009EC005F93CFC05F3F31F0660F000C5795679552
:1009FC00752F08955F9300200AF0CFC0C8C050E84F
:100A0C00192E1522880F991F9527550F879550E899
:100A1C00072E0522660F771F7527550F67950895CA
:100A2C00689401C0E8945F93F2DF703818F07F3F50
:100A3C0008F4A7C056E1571BAAF4519558300EF490
:100A4C00593030F0EFEFFFEF6FEF7FE777F91AC017
:100A5C0077275523B9F0EE0FFF1F661F771F5A95A6
:100A6C00D1F710C07727583028F0EF2FF62F672FCB
:100A7C005850F9CF552331F076956795F795E79552
:100A8C005A95D1F700200AF429D15F910895689402
:100A9C0001C0E894309760407040B1F0002426F01B
:100AAC00772312F400941AD1172E7EE1112032F024
:100ABC007A95EE0FFF1F661F111CF9CFEF2FF62F43
:100ACC00612D5F938ADF5F9108954F93AF01FD0114
:100ADC00DA01AB01BC01CA01402D012C142E4F913F
:100AEC000895EA0FFB1F681F0895E095F095609537
:100AFC00EF5FFF4F6F4F08955F9381DF903871F177
:100B0C0050E8152604C05F937ADF903839F17038BD
:100B1C0021F1572F591B2BF112F4D7DFFACF583193
:100B2C0018F0AA27BB278827583028F0AB2FB82FEE
:100B3C0088275850F9CF552329F08695B795A79556
:100B4C005A95D9F7502D512572F0CBDF38F46795B3
:100B5C00F795E795739513F420C0B7DF3EDF5F91EF
:100B6C000895D8F7FBCFEA1BFB0B680B51F010F480
:100B7C000094BBDF662392F3EE0FFF1F661F7A957E
:100B8C00CBF7EE27FF27662777275F910895EFEFC6
:100B9C00FFEF6FE77FEF5F910895EFEFFFEF6FE7E8
:100BAC007FE75F9108955F932ADF703851F3903897
:100BBC0041F301240894791F23F41CF300203AF329
:100BCC00ECCF0F921F932F933F934F931127222714
:100BDC009927689FA0018F9F302D410D591F6B9F46
:100BEC00300D411D591F8E9F27D0BF9F25D06A9F66
:100BFC0023D0BE9F1DD0AF9F1BD0AE9F110D291FC0
:100C0C00391F491F591FE32FF42F652F522F4F9176
:100C1C003F912F911F910F9066232AF0550FEE1FD5
:100C2C00FF1F661F02C073954BF2CDDE5F910895D6
:100C3C00100D211D391F02C0200D311D491F591FD8
:100C4C0008955F93DCDE703821F411200AF49FCFF5
:100C5C00A4CF903809F495CF01240894970B1BF47A
:100C6C00D4F30020F3CF792F1F932F933F934F93FF
:100C7C0011241127222733274427552790E2AE173A
:100C8C00BF078607410730F0AE1BBF0B860B410B2D
:100C9C00089401C08894551F221F331F111CAA1FD2
:100CAC00BB1F881F441F9A9551F7F901612D4F9175
:100CBC003F912F911F91662332F0550FEE1FFF1FAE
:100CCC00661F7A9543F27FDE5F9108950024AF0D85
:100CDC00B01D0895F195E195F0400895F09560955B
:100CEC007095E195FF4F6F4F7F4F0895EE0FFF1FEB
:100CFC00EE0FFF1F0895AA0FBB1FAA0FBB1F08956D
:100D0C006F2F660F660B762F0895ED91FC9111975E
:100D1C000895ED91FD916D917C9113970895ED934C
:100D2C00FD936D937C9308950590F491E02D0895B7
:100D3C007A936A93FA93EA930895182E862F612D6D
:100D4C00192E972F712D1B2EBF2FF12D1A2EAE2F72
:100D5C00E12D08955A934A933A932A931A930A933E
:100D6C0008955D814C813B812A8119810881089508
:00000001FF
